{
  "_format": "hh-sol-artifact-1",
  "contractName": "SoMinty",
  "sourceName": "contracts/SoMinty.sol",
  "abi": [
    {
      "inputs": [],
      "stateMutability": "nonpayable",
      "type": "constructor"
    },
    {
      "anonymous": false,
      "inputs": [
        {
          "indexed": true,
          "internalType": "address",
          "name": "owner",
          "type": "address"
        },
        {
          "indexed": true,
          "internalType": "address",
          "name": "approved",
          "type": "address"
        },
        {
          "indexed": true,
          "internalType": "uint256",
          "name": "tokenId",
          "type": "uint256"
        }
      ],
      "name": "Approval",
      "type": "event"
    },
    {
      "anonymous": false,
      "inputs": [
        {
          "indexed": true,
          "internalType": "address",
          "name": "owner",
          "type": "address"
        },
        {
          "indexed": true,
          "internalType": "address",
          "name": "operator",
          "type": "address"
        },
        {
          "indexed": false,
          "internalType": "bool",
          "name": "approved",
          "type": "bool"
        }
      ],
      "name": "ApprovalForAll",
      "type": "event"
    },
    {
      "anonymous": false,
      "inputs": [
        {
          "indexed": false,
          "internalType": "address",
          "name": "sender",
          "type": "address"
        },
        {
          "indexed": false,
          "internalType": "uint256",
          "name": "tokenId",
          "type": "uint256"
        }
      ],
      "name": "NewEpicNFTMinted",
      "type": "event"
    },
    {
      "anonymous": false,
      "inputs": [
        {
          "indexed": true,
          "internalType": "address",
          "name": "from",
          "type": "address"
        },
        {
          "indexed": true,
          "internalType": "address",
          "name": "to",
          "type": "address"
        },
        {
          "indexed": true,
          "internalType": "uint256",
          "name": "tokenId",
          "type": "uint256"
        }
      ],
      "name": "Transfer",
      "type": "event"
    },
    {
      "inputs": [
        {
          "internalType": "address",
          "name": "to",
          "type": "address"
        },
        {
          "internalType": "uint256",
          "name": "tokenId",
          "type": "uint256"
        }
      ],
      "name": "approve",
      "outputs": [],
      "stateMutability": "nonpayable",
      "type": "function"
    },
    {
      "inputs": [
        {
          "internalType": "address",
          "name": "owner",
          "type": "address"
        }
      ],
      "name": "balanceOf",
      "outputs": [
        {
          "internalType": "uint256",
          "name": "",
          "type": "uint256"
        }
      ],
      "stateMutability": "view",
      "type": "function"
    },
    {
      "inputs": [
        {
          "internalType": "uint256",
          "name": "tokenId",
          "type": "uint256"
        }
      ],
      "name": "getApproved",
      "outputs": [
        {
          "internalType": "address",
          "name": "",
          "type": "address"
        }
      ],
      "stateMutability": "view",
      "type": "function"
    },
    {
      "inputs": [
        {
          "internalType": "address",
          "name": "owner",
          "type": "address"
        },
        {
          "internalType": "address",
          "name": "operator",
          "type": "address"
        }
      ],
      "name": "isApprovedForAll",
      "outputs": [
        {
          "internalType": "bool",
          "name": "",
          "type": "bool"
        }
      ],
      "stateMutability": "view",
      "type": "function"
    },
    {
      "inputs": [],
      "name": "makeAnEpicNFT",
      "outputs": [],
      "stateMutability": "nonpayable",
      "type": "function"
    },
    {
      "inputs": [],
      "name": "name",
      "outputs": [
        {
          "internalType": "string",
          "name": "",
          "type": "string"
        }
      ],
      "stateMutability": "view",
      "type": "function"
    },
    {
      "inputs": [
        {
          "internalType": "uint256",
          "name": "tokenId",
          "type": "uint256"
        }
      ],
      "name": "ownerOf",
      "outputs": [
        {
          "internalType": "address",
          "name": "",
          "type": "address"
        }
      ],
      "stateMutability": "view",
      "type": "function"
    },
    {
      "inputs": [
        {
          "internalType": "uint256",
          "name": "tokenId",
          "type": "uint256"
        }
      ],
      "name": "pickRandomFirstWord",
      "outputs": [
        {
          "internalType": "string",
          "name": "",
          "type": "string"
        }
      ],
      "stateMutability": "view",
      "type": "function"
    },
    {
      "inputs": [
        {
          "internalType": "uint256",
          "name": "tokenId",
          "type": "uint256"
        }
      ],
      "name": "pickRandomSecondWord",
      "outputs": [
        {
          "internalType": "string",
          "name": "",
          "type": "string"
        }
      ],
      "stateMutability": "view",
      "type": "function"
    },
    {
      "inputs": [
        {
          "internalType": "uint256",
          "name": "tokenId",
          "type": "uint256"
        }
      ],
      "name": "pickRandomThirdWord",
      "outputs": [
        {
          "internalType": "string",
          "name": "",
          "type": "string"
        }
      ],
      "stateMutability": "view",
      "type": "function"
    },
    {
      "inputs": [
        {
          "internalType": "address",
          "name": "from",
          "type": "address"
        },
        {
          "internalType": "address",
          "name": "to",
          "type": "address"
        },
        {
          "internalType": "uint256",
          "name": "tokenId",
          "type": "uint256"
        }
      ],
      "name": "safeTransferFrom",
      "outputs": [],
      "stateMutability": "nonpayable",
      "type": "function"
    },
    {
      "inputs": [
        {
          "internalType": "address",
          "name": "from",
          "type": "address"
        },
        {
          "internalType": "address",
          "name": "to",
          "type": "address"
        },
        {
          "internalType": "uint256",
          "name": "tokenId",
          "type": "uint256"
        },
        {
          "internalType": "bytes",
          "name": "_data",
          "type": "bytes"
        }
      ],
      "name": "safeTransferFrom",
      "outputs": [],
      "stateMutability": "nonpayable",
      "type": "function"
    },
    {
      "inputs": [
        {
          "internalType": "address",
          "name": "operator",
          "type": "address"
        },
        {
          "internalType": "bool",
          "name": "approved",
          "type": "bool"
        }
      ],
      "name": "setApprovalForAll",
      "outputs": [],
      "stateMutability": "nonpayable",
      "type": "function"
    },
    {
      "inputs": [
        {
          "internalType": "bytes4",
          "name": "interfaceId",
          "type": "bytes4"
        }
      ],
      "name": "supportsInterface",
      "outputs": [
        {
          "internalType": "bool",
          "name": "",
          "type": "bool"
        }
      ],
      "stateMutability": "view",
      "type": "function"
    },
    {
      "inputs": [],
      "name": "symbol",
      "outputs": [
        {
          "internalType": "string",
          "name": "",
          "type": "string"
        }
      ],
      "stateMutability": "view",
      "type": "function"
    },
    {
      "inputs": [
        {
          "internalType": "uint256",
          "name": "tokenId",
          "type": "uint256"
        }
      ],
      "name": "tokenURI",
      "outputs": [
        {
          "internalType": "string",
          "name": "",
          "type": "string"
        }
      ],
      "stateMutability": "view",
      "type": "function"
    },
    {
      "inputs": [
        {
          "internalType": "address",
          "name": "from",
          "type": "address"
        },
        {
          "internalType": "address",
          "name": "to",
          "type": "address"
        },
        {
          "internalType": "uint256",
          "name": "tokenId",
          "type": "uint256"
        }
      ],
      "name": "transferFrom",
      "outputs": [],
      "stateMutability": "nonpayable",
      "type": "function"
    }
  ],
  "bytecode": "0x60806040526040518060a001604052806040518060400160405280600881526020017f436f72766574746500000000000000000000000000000000000000000000000081525081526020016040518060400160405280600d81526020017f4772616e64204361726176616e0000000000000000000000000000000000000081525081526020016040518060400160405280600681526020017f496d70616c61000000000000000000000000000000000000000000000000000081525081526020016040518060400160405280600781526020017f4d6f64656c20540000000000000000000000000000000000000000000000000081525081526020016040518060400160405280600881526020017f436f6c6f7261646f00000000000000000000000000000000000000000000000081525081525060089060056200014692919062000598565b506040518060a001604052806040518060400160405280600781526020017f234646413530300000000000000000000000000000000000000000000000000081525081526020016040518060400160405280600781526020017f236261646135350000000000000000000000000000000000000000000000000081525081526020016040518060400160405280600781526020017f234444363345450000000000000000000000000000000000000000000000000081525081526020016040518060400160405280600781526020017f233638394243300000000000000000000000000000000000000000000000000081525081526020016040518060400160405280600781526020017f233030666630300000000000000000000000000000000000000000000000000081525081525060099060056200028992919062000598565b506040518060a001604052806040518060400160405280600f81526020017f4e6f72746820436f6e7374616e6365000000000000000000000000000000000081525081526020016040518060400160405280600c81526020017f44656f6e64726576696c6c65000000000000000000000000000000000000000081525081526020016040518060400160405280601081526020017f506f7274204f74686f626f726f7567680000000000000000000000000000000081525081526020016040518060400160405280600e81526020017f477573696b6f77736b697374616400000000000000000000000000000000000081525081526020016040518060400160405280600d81526020017f48616c766f72736f6e666f727400000000000000000000000000000000000000815250815250600a906005620003cc92919062000598565b50348015620003da57600080fd5b506040518060400160405280600981526020017f5371756172654e465400000000000000000000000000000000000000000000008152506040518060400160405280600681526020017f535155415245000000000000000000000000000000000000000000000000000081525081600090805190602001906200045f929190620005ff565b50806001908051906020019062000478929190620005ff565b505050620004c66040518060400160405280601e81526020017f54686973204e465420636f6e747261637420697320736f206d696e74792e0000815250620004cc60201b620011fb1760201c565b6200084a565b6200056c81604051602401620004e39190620007c1565b6040516020818303038152906040527f41304fac000000000000000000000000000000000000000000000000000000007bffffffffffffffffffffffffffffffffffffffffffffffffffffffff19166020820180517bffffffffffffffffffffffffffffffffffffffffffffffffffffffff83818316178352505050506200056f60201b60201c565b50565b60008151905060006a636f6e736f6c652e6c6f679050602083016000808483855afa5050505050565b828054828255906000526020600020908101928215620005ec579160200282015b82811115620005eb578251829080519060200190620005da929190620005ff565b5091602001919060010190620005b9565b5b509050620005fb919062000690565b5090565b8280546200060d9062000814565b90600052602060002090601f0160209004810192826200063157600085556200067d565b82601f106200064c57805160ff19168380011785556200067d565b828001600101855582156200067d579182015b828111156200067c5782518255916020019190600101906200065f565b5b5090506200068c9190620006b8565b5090565b5b80821115620006b45760008181620006aa9190620006d7565b5060010162000691565b5090565b5b80821115620006d3576000816000905550600101620006b9565b5090565b508054620006e59062000814565b6000825580601f10620006f957506200071a565b601f016020900490600052602060002090810190620007199190620006b8565b5b50565b600081519050919050565b600082825260208201905092915050565b60005b83811015620007595780820151818401526020810190506200073c565b8381111562000769576000848401525b50505050565b6000601f19601f8301169050919050565b60006200078d826200071d565b62000799818562000728565b9350620007ab81856020860162000739565b620007b6816200076f565b840191505092915050565b60006020820190508181036000830152620007dd818462000780565b905092915050565b7f4e487b7100000000000000000000000000000000000000000000000000000000600052602260045260246000fd5b600060028204905060018216806200082d57607f821691505b60208210811415620008445762000843620007e5565b5b50919050565b613ac5806200085a6000396000f3fe608060405234801561001057600080fd5b506004361061010b5760003560e01c806370a08231116100a2578063b88d4fde11610071578063b88d4fde146102dc578063c575757a146102f8578063c87b56dd14610328578063de9d132f14610358578063e985e9c5146103625761010b565b806370a082311461024257806395d89b4114610272578063a22cb46514610290578063b187301f146102ac5761010b565b806323b872dd116100de57806323b872dd146101aa5780632de38d68146101c657806342842e0e146101f65780636352211e146102125761010b565b806301ffc9a71461011057806306fdde0314610140578063081812fc1461015e578063095ea7b31461018e575b600080fd5b61012a60048036038101906101259190612210565b610392565b6040516101379190612258565b60405180910390f35b610148610474565b604051610155919061230c565b60405180910390f35b61017860048036038101906101739190612364565b610506565b60405161018591906123d2565b60405180910390f35b6101a860048036038101906101a39190612419565b61058b565b005b6101c460048036038101906101bf9190612459565b6106a3565b005b6101e060048036038101906101db9190612364565b610703565b6040516101ed919061230c565b60405180910390f35b610210600480360381019061020b9190612459565b6107fb565b005b61022c60048036038101906102279190612364565b61081b565b60405161023991906123d2565b60405180910390f35b61025c600480360381019061025791906124ac565b6108cd565b60405161026991906124e8565b60405180910390f35b61027a610985565b604051610287919061230c565b60405180910390f35b6102aa60048036038101906102a5919061252f565b610a17565b005b6102c660048036038101906102c19190612364565b610b98565b6040516102d3919061230c565b60405180910390f35b6102f660048036038101906102f191906126a4565b610c90565b005b610312600480360381019061030d9190612364565b610cf2565b60405161031f919061230c565b60405180910390f35b610342600480360381019061033d9190612364565b610dea565b60405161034f919061230c565b60405180910390f35b610360610f3c565b005b61037c60048036038101906103779190612727565b611167565b6040516103899190612258565b60405180910390f35b60007f80ac58cd000000000000000000000000000000000000000000000000000000007bffffffffffffffffffffffffffffffffffffffffffffffffffffffff1916827bffffffffffffffffffffffffffffffffffffffffffffffffffffffff1916148061045d57507f5b5e139f000000000000000000000000000000000000000000000000000000007bffffffffffffffffffffffffffffffffffffffffffffffffffffffff1916827bffffffffffffffffffffffffffffffffffffffffffffffffffffffff1916145b8061046d575061046c82611294565b5b9050919050565b60606000805461048390612796565b80601f01602080910402602001604051908101604052809291908181526020018280546104af90612796565b80156104fc5780601f106104d1576101008083540402835291602001916104fc565b820191906000526020600020905b8154815290600101906020018083116104df57829003601f168201915b5050505050905090565b6000610511826112fe565b610550576040517f08c379a00000000000000000000000000000000000000000000000000000000081526004016105479061283a565b60405180910390fd5b6004600083815260200190815260200160002060009054906101000a900473ffffffffffffffffffffffffffffffffffffffff169050919050565b60006105968261081b565b90508073ffffffffffffffffffffffffffffffffffffffff168373ffffffffffffffffffffffffffffffffffffffff161415610607576040517f08c379a00000000000000000000000000000000000000000000000000000000081526004016105fe906128cc565b60405180910390fd5b8073ffffffffffffffffffffffffffffffffffffffff1661062661136a565b73ffffffffffffffffffffffffffffffffffffffff16148061065557506106548161064f61136a565b611167565b5b610694576040517f08c379a000000000000000000000000000000000000000000000000000000000815260040161068b9061295e565b60405180910390fd5b61069e8383611372565b505050565b6106b46106ae61136a565b8261142b565b6106f3576040517f08c379a00000000000000000000000000000000000000000000000000000000081526004016106ea906129f0565b60405180910390fd5b6106fe838383611509565b505050565b6060600061073761071384611765565b6040516020016107239190612a98565b6040516020818303038152906040526118c6565b90506008805490508161074a9190612ae9565b9050600881815481106107605761075f612b1a565b5b90600052602060002001805461077590612796565b80601f01602080910402602001604051908101604052809291908181526020018280546107a190612796565b80156107ee5780601f106107c3576101008083540402835291602001916107ee565b820191906000526020600020905b8154815290600101906020018083116107d157829003601f168201915b5050505050915050919050565b61081683838360405180602001604052806000815250610c90565b505050565b6000806002600084815260200190815260200160002060009054906101000a900473ffffffffffffffffffffffffffffffffffffffff169050600073ffffffffffffffffffffffffffffffffffffffff168173ffffffffffffffffffffffffffffffffffffffff1614156108c4576040517f08c379a00000000000000000000000000000000000000000000000000000000081526004016108bb90612bbb565b60405180910390fd5b80915050919050565b60008073ffffffffffffffffffffffffffffffffffffffff168273ffffffffffffffffffffffffffffffffffffffff16141561093e576040517f08c379a000000000000000000000000000000000000000000000000000000000815260040161093590612c4d565b60405180910390fd5b600360008373ffffffffffffffffffffffffffffffffffffffff1673ffffffffffffffffffffffffffffffffffffffff168152602001908152602001600020549050919050565b60606001805461099490612796565b80601f01602080910402602001604051908101604052809291908181526020018280546109c090612796565b8015610a0d5780601f106109e257610100808354040283529160200191610a0d565b820191906000526020600020905b8154815290600101906020018083116109f057829003601f168201915b5050505050905090565b610a1f61136a565b73ffffffffffffffffffffffffffffffffffffffff168273ffffffffffffffffffffffffffffffffffffffff161415610a8d576040517f08c379a0000000000000000000000000000000000000000000000000000000008152600401610a8490612cb9565b60405180910390fd5b8060056000610a9a61136a565b73ffffffffffffffffffffffffffffffffffffffff1673ffffffffffffffffffffffffffffffffffffffff16815260200190815260200160002060008473ffffffffffffffffffffffffffffffffffffffff1673ffffffffffffffffffffffffffffffffffffffff16815260200190815260200160002060006101000a81548160ff0219169083151502179055508173ffffffffffffffffffffffffffffffffffffffff16610b4761136a565b73ffffffffffffffffffffffffffffffffffffffff167f17307eab39ab6107e8899845ad3d59bd9653f200f220920489ca2b5937696c3183604051610b8c9190612258565b60405180910390a35050565b60606000610bcc610ba884611765565b604051602001610bb89190612d25565b6040516020818303038152906040526118c6565b905060098054905081610bdf9190612ae9565b905060098181548110610bf557610bf4612b1a565b5b906000526020600020018054610c0a90612796565b80601f0160208091040260200160405190810160405280929190818152602001828054610c3690612796565b8015610c835780601f10610c5857610100808354040283529160200191610c83565b820191906000526020600020905b815481529060010190602001808311610c6657829003601f168201915b5050505050915050919050565b610ca1610c9b61136a565b8361142b565b610ce0576040517f08c379a0000000000000000000000000000000000000000000000000000000008152600401610cd7906129f0565b60405180910390fd5b610cec848484846118f9565b50505050565b60606000610d26610d0284611765565b604051602001610d129190612d93565b6040516020818303038152906040526118c6565b9050600a8054905081610d399190612ae9565b9050600a8181548110610d4f57610d4e612b1a565b5b906000526020600020018054610d6490612796565b80601f0160208091040260200160405190810160405280929190818152602001828054610d9090612796565b8015610ddd5780601f10610db257610100808354040283529160200191610ddd565b820191906000526020600020905b815481529060010190602001808311610dc057829003601f168201915b5050505050915050919050565b6060610df5826112fe565b610e34576040517f08c379a0000000000000000000000000000000000000000000000000000000008152600401610e2b90612e27565b60405180910390fd5b6000600660008481526020019081526020016000208054610e5490612796565b80601f0160208091040260200160405190810160405280929190818152602001828054610e8090612796565b8015610ecd5780601f10610ea257610100808354040283529160200191610ecd565b820191906000526020600020905b815481529060010190602001808311610eb057829003601f168201915b505050505090506000610ede611955565b9050600081511415610ef4578192505050610f37565b600082511115610f29578082604051602001610f11929190612e47565b60405160208183030381529060405292505050610f37565b610f328461196c565b925050505b919050565b6000610f486007611a13565b90506000610f5582610703565b90506000610f6283610b98565b90506000610f6f84610cf2565b90506000838383604051602001610f8893929190612eb7565b6040516020818303038152906040529050600060405180610120016040528060e481526020016139ac60e49139905060006040518060a00160405280606e81526020016138fe606e913990506000828683898989604051602001610ff196959493929190612f4a565b60405160208183030381529060405290506110406040518060400160405280601581526020017f0a2d2d2d2d2d2d2d2d2d2d2d2d2d2d2d2d2d2d2d2d00000000000000000000008152506111fb565b611049816111fb565b6110876040518060400160405280601581526020017f2d2d2d2d2d2d2d2d2d2d2d2d2d2d2d2d2d2d2d2d0a00000000000000000000008152506111fb565b60006110bb8561109684611a21565b6040516020016110a79291906130f3565b604051602081830303815290604052611a21565b90506000816040516020016110d09190613184565b60405160208183030381529060405290506110eb338b611bb9565b6110f58a82611bd7565b6110ff6007611c4b565b6111226040518060600160405280602581526020016138d9602591398b33611c61565b7febb98688741ffa4c7589bf325de30cf7becb63de567842e1ccdb6cb949fdc82c338b6040516111539291906131a6565b60405180910390a150505050505050505050565b6000600560008473ffffffffffffffffffffffffffffffffffffffff1673ffffffffffffffffffffffffffffffffffffffff16815260200190815260200160002060008373ffffffffffffffffffffffffffffffffffffffff1673ffffffffffffffffffffffffffffffffffffffff16815260200190815260200160002060009054906101000a900460ff16905092915050565b6112918160405160240161120f919061230c565b6040516020818303038152906040527f41304fac000000000000000000000000000000000000000000000000000000007bffffffffffffffffffffffffffffffffffffffffffffffffffffffff19166020820180517bffffffffffffffffffffffffffffffffffffffffffffffffffffffff8381831617835250505050611d00565b50565b60007f01ffc9a7000000000000000000000000000000000000000000000000000000007bffffffffffffffffffffffffffffffffffffffffffffffffffffffff1916827bffffffffffffffffffffffffffffffffffffffffffffffffffffffff1916149050919050565b60008073ffffffffffffffffffffffffffffffffffffffff166002600084815260200190815260200160002060009054906101000a900473ffffffffffffffffffffffffffffffffffffffff1673ffffffffffffffffffffffffffffffffffffffff1614159050919050565b600033905090565b816004600083815260200190815260200160002060006101000a81548173ffffffffffffffffffffffffffffffffffffffff021916908373ffffffffffffffffffffffffffffffffffffffff160217905550808273ffffffffffffffffffffffffffffffffffffffff166113e58361081b565b73ffffffffffffffffffffffffffffffffffffffff167f8c5be1e5ebec7d5bd14f71427d1e84f3dd0314c0f7b2291e5b200ac8c7c3b92560405160405180910390a45050565b6000611436826112fe565b611475576040517f08c379a000000000000000000000000000000000000000000000000000000000815260040161146c90613241565b60405180910390fd5b60006114808361081b565b90508073ffffffffffffffffffffffffffffffffffffffff168473ffffffffffffffffffffffffffffffffffffffff1614806114ef57508373ffffffffffffffffffffffffffffffffffffffff166114d784610506565b73ffffffffffffffffffffffffffffffffffffffff16145b8061150057506114ff8185611167565b5b91505092915050565b8273ffffffffffffffffffffffffffffffffffffffff166115298261081b565b73ffffffffffffffffffffffffffffffffffffffff161461157f576040517f08c379a0000000000000000000000000000000000000000000000000000000008152600401611576906132d3565b60405180910390fd5b600073ffffffffffffffffffffffffffffffffffffffff168273ffffffffffffffffffffffffffffffffffffffff1614156115ef576040517f08c379a00000000000000000000000000000000000000000000000000000000081526004016115e690613365565b60405180910390fd5b6115fa838383611d29565b611605600082611372565b6001600360008573ffffffffffffffffffffffffffffffffffffffff1673ffffffffffffffffffffffffffffffffffffffff168152602001908152602001600020600082825461165591906133b4565b925050819055506001600360008473ffffffffffffffffffffffffffffffffffffffff1673ffffffffffffffffffffffffffffffffffffffff16815260200190815260200160002060008282546116ac91906133e8565b92505081905550816002600083815260200190815260200160002060006101000a81548173ffffffffffffffffffffffffffffffffffffffff021916908373ffffffffffffffffffffffffffffffffffffffff160217905550808273ffffffffffffffffffffffffffffffffffffffff168473ffffffffffffffffffffffffffffffffffffffff167fddf252ad1be2c89b69c2b068fc378daa952ba7f163c4a11628f55a4df523b3ef60405160405180910390a4505050565b606060008214156117ad576040518060400160405280600181526020017f300000000000000000000000000000000000000000000000000000000000000081525090506118c1565b600082905060005b600082146117df5780806117c89061343e565b915050600a826117d89190613487565b91506117b5565b60008167ffffffffffffffff8111156117fb576117fa612579565b5b6040519080825280601f01601f19166020018201604052801561182d5781602001600182028036833780820191505090505b5090505b600085146118ba5760018261184691906133b4565b9150600a856118559190612ae9565b603061186191906133e8565b60f81b81838151811061187757611876612b1a565b5b60200101907effffffffffffffffffffffffffffffffffffffffffffffffffffffffffffff1916908160001a905350600a856118b39190613487565b9450611831565b8093505050505b919050565b6000816040516020016118d991906134b8565b6040516020818303038152906040528051906020012060001c9050919050565b611904848484611509565b61191084848484611d2e565b61194f576040517f08c379a000000000000000000000000000000000000000000000000000000000815260040161194690613541565b60405180910390fd5b50505050565b606060405180602001604052806000815250905090565b6060611977826112fe565b6119b6576040517f08c379a00000000000000000000000000000000000000000000000000000000081526004016119ad906135d3565b60405180910390fd5b60006119c0611955565b905060008151116119e05760405180602001604052806000815250611a0b565b806119ea84611765565b6040516020016119fb929190612e47565b6040516020818303038152906040525b915050919050565b600081600001549050919050565b60606000825190506000811415611a4a5760405180602001604052806000815250915050611bb4565b60006003600283611a5b91906133e8565b611a659190613487565b6004611a7191906135f3565b90506000602082611a8291906133e8565b67ffffffffffffffff811115611a9b57611a9a612579565b5b6040519080825280601f01601f191660200182016040528015611acd5781602001600182028036833780820191505090505b509050600060405180606001604052806040815260200161396c604091399050600181016020830160005b86811015611b715760038101905062ffffff818a015116603f8160121c168401518060081b905060ff603f83600c1c1686015116810190508060081b905060ff603f8360061c1686015116810190508060081b905060ff603f831686015116810190508060e01b90508084526004840193505050611af8565b506003860660018114611b8b5760028114611b9b57611ba6565b613d3d60f01b6002830352611ba6565b603d60f81b60018303525b508484525050819450505050505b919050565b611bd3828260405180602001604052806000815250611ec5565b5050565b611be0826112fe565b611c1f576040517f08c379a0000000000000000000000000000000000000000000000000000000008152600401611c16906136bf565b60405180910390fd5b80600660008481526020019081526020016000209080519060200190611c46929190612101565b505050565b6001816000016000828254019250508190555050565b611cfb838383604051602401611c79939291906136df565b6040516020818303038152906040527fe3849f79000000000000000000000000000000000000000000000000000000007bffffffffffffffffffffffffffffffffffffffffffffffffffffffff19166020820180517bffffffffffffffffffffffffffffffffffffffffffffffffffffffff8381831617835250505050611d00565b505050565b60008151905060006a636f6e736f6c652e6c6f679050602083016000808483855afa5050505050565b505050565b6000611d4f8473ffffffffffffffffffffffffffffffffffffffff16611f20565b15611eb8578373ffffffffffffffffffffffffffffffffffffffff1663150b7a02611d7861136a565b8786866040518563ffffffff1660e01b8152600401611d9a9493929190613772565b602060405180830381600087803b158015611db457600080fd5b505af1925050508015611de557506040513d601f19601f82011682018060405250810190611de291906137d3565b60015b611e68573d8060008114611e15576040519150601f19603f3d011682016040523d82523d6000602084013e611e1a565b606091505b50600081511415611e60576040517f08c379a0000000000000000000000000000000000000000000000000000000008152600401611e5790613541565b60405180910390fd5b805181602001fd5b63150b7a0260e01b7bffffffffffffffffffffffffffffffffffffffffffffffffffffffff1916817bffffffffffffffffffffffffffffffffffffffffffffffffffffffff191614915050611ebd565b600190505b949350505050565b611ecf8383611f33565b611edc6000848484611d2e565b611f1b576040517f08c379a0000000000000000000000000000000000000000000000000000000008152600401611f1290613541565b60405180910390fd5b505050565b600080823b905060008111915050919050565b600073ffffffffffffffffffffffffffffffffffffffff168273ffffffffffffffffffffffffffffffffffffffff161415611fa3576040517f08c379a0000000000000000000000000000000000000000000000000000000008152600401611f9a9061384c565b60405180910390fd5b611fac816112fe565b15611fec576040517f08c379a0000000000000000000000000000000000000000000000000000000008152600401611fe3906138b8565b60405180910390fd5b611ff860008383611d29565b6001600360008473ffffffffffffffffffffffffffffffffffffffff1673ffffffffffffffffffffffffffffffffffffffff168152602001908152602001600020600082825461204891906133e8565b92505081905550816002600083815260200190815260200160002060006101000a81548173ffffffffffffffffffffffffffffffffffffffff021916908373ffffffffffffffffffffffffffffffffffffffff160217905550808273ffffffffffffffffffffffffffffffffffffffff16600073ffffffffffffffffffffffffffffffffffffffff167fddf252ad1be2c89b69c2b068fc378daa952ba7f163c4a11628f55a4df523b3ef60405160405180910390a45050565b82805461210d90612796565b90600052602060002090601f01602090048101928261212f5760008555612176565b82601f1061214857805160ff1916838001178555612176565b82800160010185558215612176579182015b8281111561217557825182559160200191906001019061215a565b5b5090506121839190612187565b5090565b5b808211156121a0576000816000905550600101612188565b5090565b6000604051905090565b600080fd5b600080fd5b60007fffffffff0000000000000000000000000000000000000000000000000000000082169050919050565b6121ed816121b8565b81146121f857600080fd5b50565b60008135905061220a816121e4565b92915050565b600060208284031215612226576122256121ae565b5b6000612234848285016121fb565b91505092915050565b60008115159050919050565b6122528161223d565b82525050565b600060208201905061226d6000830184612249565b92915050565b600081519050919050565b600082825260208201905092915050565b60005b838110156122ad578082015181840152602081019050612292565b838111156122bc576000848401525b50505050565b6000601f19601f8301169050919050565b60006122de82612273565b6122e8818561227e565b93506122f881856020860161228f565b612301816122c2565b840191505092915050565b6000602082019050818103600083015261232681846122d3565b905092915050565b6000819050919050565b6123418161232e565b811461234c57600080fd5b50565b60008135905061235e81612338565b92915050565b60006020828403121561237a576123796121ae565b5b60006123888482850161234f565b91505092915050565b600073ffffffffffffffffffffffffffffffffffffffff82169050919050565b60006123bc82612391565b9050919050565b6123cc816123b1565b82525050565b60006020820190506123e760008301846123c3565b92915050565b6123f6816123b1565b811461240157600080fd5b50565b600081359050612413816123ed565b92915050565b600080604083850312156124305761242f6121ae565b5b600061243e85828601612404565b925050602061244f8582860161234f565b9150509250929050565b600080600060608486031215612472576124716121ae565b5b600061248086828701612404565b935050602061249186828701612404565b92505060406124a28682870161234f565b9150509250925092565b6000602082840312156124c2576124c16121ae565b5b60006124d084828501612404565b91505092915050565b6124e28161232e565b82525050565b60006020820190506124fd60008301846124d9565b92915050565b61250c8161223d565b811461251757600080fd5b50565b60008135905061252981612503565b92915050565b60008060408385031215612546576125456121ae565b5b600061255485828601612404565b92505060206125658582860161251a565b9150509250929050565b600080fd5b600080fd5b7f4e487b7100000000000000000000000000000000000000000000000000000000600052604160045260246000fd5b6125b1826122c2565b810181811067ffffffffffffffff821117156125d0576125cf612579565b5b80604052505050565b60006125e36121a4565b90506125ef82826125a8565b919050565b600067ffffffffffffffff82111561260f5761260e612579565b5b612618826122c2565b9050602081019050919050565b82818337600083830152505050565b6000612647612642846125f4565b6125d9565b90508281526020810184848401111561266357612662612574565b5b61266e848285612625565b509392505050565b600082601f83011261268b5761268a61256f565b5b813561269b848260208601612634565b91505092915050565b600080600080608085870312156126be576126bd6121ae565b5b60006126cc87828801612404565b94505060206126dd87828801612404565b93505060406126ee8782880161234f565b925050606085013567ffffffffffffffff81111561270f5761270e6121b3565b5b61271b87828801612676565b91505092959194509250565b6000806040838503121561273e5761273d6121ae565b5b600061274c85828601612404565b925050602061275d85828601612404565b9150509250929050565b7f4e487b7100000000000000000000000000000000000000000000000000000000600052602260045260246000fd5b600060028204905060018216806127ae57607f821691505b602082108114156127c2576127c1612767565b5b50919050565b7f4552433732313a20617070726f76656420717565727920666f72206e6f6e657860008201527f697374656e7420746f6b656e0000000000000000000000000000000000000000602082015250565b6000612824602c8361227e565b915061282f826127c8565b604082019050919050565b6000602082019050818103600083015261285381612817565b9050919050565b7f4552433732313a20617070726f76616c20746f2063757272656e74206f776e6560008201527f7200000000000000000000000000000000000000000000000000000000000000602082015250565b60006128b660218361227e565b91506128c18261285a565b604082019050919050565b600060208201905081810360008301526128e5816128a9565b9050919050565b7f4552433732313a20617070726f76652063616c6c6572206973206e6f74206f7760008201527f6e6572206e6f7220617070726f76656420666f7220616c6c0000000000000000602082015250565b600061294860388361227e565b9150612953826128ec565b604082019050919050565b600060208201905081810360008301526129778161293b565b9050919050565b7f4552433732313a207472616e736665722063616c6c6572206973206e6f74206f60008201527f776e6572206e6f7220617070726f766564000000000000000000000000000000602082015250565b60006129da60318361227e565b91506129e58261297e565b604082019050919050565b60006020820190508181036000830152612a09816129cd565b9050919050565b600081905092915050565b7f46495253545f574f524400000000000000000000000000000000000000000000600082015250565b6000612a51600a83612a10565b9150612a5c82612a1b565b600a82019050919050565b6000612a7282612273565b612a7c8185612a10565b9350612a8c81856020860161228f565b80840191505092915050565b6000612aa382612a44565b9150612aaf8284612a67565b915081905092915050565b7f4e487b7100000000000000000000000000000000000000000000000000000000600052601260045260246000fd5b6000612af48261232e565b9150612aff8361232e565b925082612b0f57612b0e612aba565b5b828206905092915050565b7f4e487b7100000000000000000000000000000000000000000000000000000000600052603260045260246000fd5b7f4552433732313a206f776e657220717565727920666f72206e6f6e657869737460008201527f656e7420746f6b656e0000000000000000000000000000000000000000000000602082015250565b6000612ba560298361227e565b9150612bb082612b49565b604082019050919050565b60006020820190508181036000830152612bd481612b98565b9050919050565b7f4552433732313a2062616c616e636520717565727920666f7220746865207a6560008201527f726f206164647265737300000000000000000000000000000000000000000000602082015250565b6000612c37602a8361227e565b9150612c4282612bdb565b604082019050919050565b60006020820190508181036000830152612c6681612c2a565b9050919050565b7f4552433732313a20617070726f766520746f2063616c6c657200000000000000600082015250565b6000612ca360198361227e565b9150612cae82612c6d565b602082019050919050565b60006020820190508181036000830152612cd281612c96565b9050919050565b7f5345434f4e445f574f5244000000000000000000000000000000000000000000600082015250565b6000612d0f600b83612a10565b9150612d1a82612cd9565b600b82019050919050565b6000612d3082612d02565b9150612d3c8284612a67565b915081905092915050565b7f54484952445f574f524400000000000000000000000000000000000000000000600082015250565b6000612d7d600a83612a10565b9150612d8882612d47565b600a82019050919050565b6000612d9e82612d70565b9150612daa8284612a67565b915081905092915050565b7f45524337323155524953746f726167653a2055524920717565727920666f722060008201527f6e6f6e6578697374656e7420746f6b656e000000000000000000000000000000602082015250565b6000612e1160318361227e565b9150612e1c82612db5565b604082019050919050565b60006020820190508181036000830152612e4081612e04565b9050919050565b6000612e538285612a67565b9150612e5f8284612a67565b91508190509392505050565b7f2c20000000000000000000000000000000000000000000000000000000000000600082015250565b6000612ea1600283612a10565b9150612eac82612e6b565b600282019050919050565b6000612ec38286612a67565b9150612ece82612e94565b9150612eda8285612a67565b9150612ee582612e94565b9150612ef18284612a67565b9150819050949350505050565b7f3c2f746578743e3c2f7376673e00000000000000000000000000000000000000600082015250565b6000612f34600d83612a10565b9150612f3f82612efe565b600d82019050919050565b6000612f568289612a67565b9150612f628288612a67565b9150612f6e8287612a67565b9150612f7a8286612a67565b9150612f8582612e94565b9150612f918285612a67565b9150612f9c82612e94565b9150612fa88284612a67565b9150612fb382612f27565b9150819050979650505050505050565b7f7b226e616d65223a202200000000000000000000000000000000000000000000600082015250565b6000612ff9600a83612a10565b915061300482612fc3565b600a82019050919050565b7f222c20226465736372697074696f6e223a2022412076657279206d696e74792060008201527f636f6c6c656374696f6e206f6620737175617265732e222c2022696d6167652260208201527f3a2022646174613a696d6167652f7376672b786d6c3b6261736536342c000000604082015250565b6000613091605d83612a10565b915061309c8261300f565b605d82019050919050565b7f227d000000000000000000000000000000000000000000000000000000000000600082015250565b60006130dd600283612a10565b91506130e8826130a7565b600282019050919050565b60006130fe82612fec565b915061310a8285612a67565b915061311582613084565b91506131218284612a67565b915061312c826130d0565b91508190509392505050565b7f646174613a6170706c69636174696f6e2f6a736f6e3b6261736536342c000000600082015250565b600061316e601d83612a10565b915061317982613138565b601d82019050919050565b600061318f82613161565b915061319b8284612a67565b915081905092915050565b60006040820190506131bb60008301856123c3565b6131c860208301846124d9565b9392505050565b7f4552433732313a206f70657261746f7220717565727920666f72206e6f6e657860008201527f697374656e7420746f6b656e0000000000000000000000000000000000000000602082015250565b600061322b602c8361227e565b9150613236826131cf565b604082019050919050565b6000602082019050818103600083015261325a8161321e565b9050919050565b7f4552433732313a207472616e73666572206f6620746f6b656e2074686174206960008201527f73206e6f74206f776e0000000000000000000000000000000000000000000000602082015250565b60006132bd60298361227e565b91506132c882613261565b604082019050919050565b600060208201905081810360008301526132ec816132b0565b9050919050565b7f4552433732313a207472616e7366657220746f20746865207a65726f2061646460008201527f7265737300000000000000000000000000000000000000000000000000000000602082015250565b600061334f60248361227e565b915061335a826132f3565b604082019050919050565b6000602082019050818103600083015261337e81613342565b9050919050565b7f4e487b7100000000000000000000000000000000000000000000000000000000600052601160045260246000fd5b60006133bf8261232e565b91506133ca8361232e565b9250828210156133dd576133dc613385565b5b828203905092915050565b60006133f38261232e565b91506133fe8361232e565b9250827fffffffffffffffffffffffffffffffffffffffffffffffffffffffffffffffff0382111561343357613432613385565b5b828201905092915050565b60006134498261232e565b91507fffffffffffffffffffffffffffffffffffffffffffffffffffffffffffffffff82141561347c5761347b613385565b5b600182019050919050565b60006134928261232e565b915061349d8361232e565b9250826134ad576134ac612aba565b5b828204905092915050565b60006134c48284612a67565b915081905092915050565b7f4552433732313a207472616e7366657220746f206e6f6e20455243373231526560008201527f63656976657220696d706c656d656e7465720000000000000000000000000000602082015250565b600061352b60328361227e565b9150613536826134cf565b604082019050919050565b6000602082019050818103600083015261355a8161351e565b9050919050565b7f4552433732314d657461646174613a2055524920717565727920666f72206e6f60008201527f6e6578697374656e7420746f6b656e0000000000000000000000000000000000602082015250565b60006135bd602f8361227e565b91506135c882613561565b604082019050919050565b600060208201905081810360008301526135ec816135b0565b9050919050565b60006135fe8261232e565b91506136098361232e565b9250817fffffffffffffffffffffffffffffffffffffffffffffffffffffffffffffffff048311821515161561364257613641613385565b5b828202905092915050565b7f45524337323155524953746f726167653a2055524920736574206f66206e6f6e60008201527f6578697374656e7420746f6b656e000000000000000000000000000000000000602082015250565b60006136a9602e8361227e565b91506136b48261364d565b604082019050919050565b600060208201905081810360008301526136d88161369c565b9050919050565b600060608201905081810360008301526136f981866122d3565b905061370860208301856124d9565b61371560408301846123c3565b949350505050565b600081519050919050565b600082825260208201905092915050565b60006137448261371d565b61374e8185613728565b935061375e81856020860161228f565b613767816122c2565b840191505092915050565b600060808201905061378760008301876123c3565b61379460208301866123c3565b6137a160408301856124d9565b81810360608301526137b38184613739565b905095945050505050565b6000815190506137cd816121e4565b92915050565b6000602082840312156137e9576137e86121ae565b5b60006137f7848285016137be565b91505092915050565b7f4552433732313a206d696e7420746f20746865207a65726f2061646472657373600082015250565b600061383660208361227e565b915061384182613800565b602082019050919050565b6000602082019050818103600083015261386581613829565b9050919050565b7f4552433732313a20746f6b656e20616c7265616479206d696e74656400000000600082015250565b60006138a2601c8361227e565b91506138ad8261386c565b602082019050919050565b600060208201905081810360008301526138d181613895565b905091905056fe416e204e465420772f20494420257320686173206265656e206d696e74656420746f20257327202f3e3c74657874207472616e73666f726d3d27726f74617465283335292720783d273730252720793d273230252720636c6173733d27626173652720646f6d696e616e742d626173656c696e653d276d6964646c652720746578742d616e63686f723d276d6964646c65273e4142434445464748494a4b4c4d4e4f505152535455565758595a6162636465666768696a6b6c6d6e6f707172737475767778797a303132333435363738392b2f3c73766720786d6c6e733d27687474703a2f2f7777772e77332e6f72672f323030302f73766727207072657365727665417370656374526174696f3d27784d696e594d696e206d656574272076696577426f783d273020302033353020333530273e3c7374796c653e2e62617365207b2066696c6c3a20233030303030303b666f6e742d66616d696c793a2073657269663b666f6e742d73697a653a20323470783b666f6e742d7765696768743a203730303b207d3c2f7374796c653e3c726563742077696474683d273130302527206865696768743d2731303025272066696c6c3d27a26469706673582212206d3ae5cb467b9f38a28fd02cb65abc3e929a0acb18fa39562f5d467d11e5f48d64736f6c63430008090033",
  "linkReferences": {},
  "deployedLinkReferences": {}
}